:020000040800F2
:1000000000000120010400084D0400084D04000810
:100010004D0400084D0400084D04000800000000D5
:100020000000000000000000000000004D04000877
:100030004D040008000000004D0400084D040008B5
:100040004D0400084D0400084D0400084D0400084C
:100050004D0400084D0400084D0400084D0400083C
:100060004D0400084D0400084D0400084D0400082C
:100070004D0400084D0400084D0400084D0400081C
:100080004D0400084D0400084D0400080000000065
:100090000000000000000000000000004D04000807
:1000A0004D0400084D0400084D0400084D040008EC
:1000B0004D0400084D0400084D0400084D040008DC
:1000C0004D0400084D0400084D0400084D040008CC
:1000D0004D0400084D0400084D0400080000000015
:1000E0004D0400084D0400084D0400080000000005
:1000F0000000000000000000000000004D040008A7
:10010000000000004D0400084D0400084D040008E4
:1001100000000000000000000000000000000000DF
:100120004D0400084D0400084D0400084D0400086B
:100130004D04000800000000000000000000000066
:100140000000000000000000000000004D04000856
:100150004D0400084D0400084D0400084D0400083B
:100160004D0400084D0400080000000000000000DD
:10017000000000000000000000000000000000007F
:10018000000000004D040008000000000000000016
:040190004D04000812
:1001940010B5054C237833B9044B13B10448AFF3BD
:1001A40000800123237010BD240000200000000003
:1001B4005004000808B5034B1BB103490348AFF3CF
:1001C400008008BD00000000280000205004000842
:1001D40080B400AF1C4B1B681A681B4B1B6822F4CD
:1001E40080321A60184B1B681A68174B1B6842F45C
:1001F40080321A6000BF144B1B681B6803F4003381
:10020400002BF8D0114B1B681A68104B1B6822F0A6
:1002140003021A600D4B1B681A680C4B1B6842F0F2
:1002240001021A6000BF094B1B681B68084B1B685E
:100234001A68074B1B6842F001021A6000BFBD46F2
:100244005DF8047B704700BF00000020040000201C
:100254000800002080B400AF0C4B1B680C4A1A60E5
:100264000C4B1B681A680B4B1B6842F005021A60A2
:1002740000BF084B1B681B6803F48033002BF8D0C5
:1002840000BF00BFBD465DF8047B7047200000201E
:1002940020BCBE001C00002080B400AF0D4B1B68C6
:1002A40040F213121A600C4B1B681A680A4B1B6845
:1002B40042F005021A6000BF074B1B681B6803F479
:1002C4008033002BF8D000BF00BFBD465DF8047B2F
:1002D400704700BF200000201C00002080B400AF45
:1002E4000E4B1B681A680D4B1B6842F480721A602F
:1002F4000A4B1B681A68094B1B6842F480621A6037
:10030400074B1B681A68064B1B6842F002021A600E
:1003140000BFBD465DF8047B704700BF0C000020A1
:100324001000002080B582B000AF1A4B1B681B6818
:10033400184B1B6800221A60164B1B681A68154B71
:100344001B6842F010021A60FFF7A6FF114B1B68EE
:100354001B68104B1B6800221A600F4B1B681B683C
:1003640003F00103002BE7D00A4B1B681A68094B02
:100374001B6842F020021A6000237B6004E0FFF750
:1003840069FF7B6801337B607B68012BF7DDFFF736
:10039400C9FFD1E7180000201400002080B500AF89
:1003A400FFF716FFFFF79AFFFFF7BCFF002318467D
:1003B40080BD00BF70B50D4D0D4C641BA41000260C
:1003C400A64209D10B4D0C4C00F040F8641BA4105C
:1003D4000026A64205D170BD55F8043B9847013666
:1003E400EEE755F8043B98470136F2E76804000845
:1003F40068040008680400086C040008DFF830D0C2
:100404000C480D490D4A002302E0D458C45004336B
:10041400C4188C42F9D30A4A0A4C002301E0136041
:100424000432A242FBD3FFF7C5FFFFF7B7FF7047C3
:1004340000000120000000202400002070040008B7
:100444002400002040000020FEE70000F8B500BFB3
:10045400F8BC08BC9E467047F8B500BFF8BC08BCA1
:040464009E467047F9
:04046800B9010008CE
:04046C0095010008EE
:100470000038024008380240303802400000024094
:100480000C000240100002401400024010E000E0A6
:0404900014E000E094
:0400000508000401EA
:00000001FF
