:020000040800F2
:10000000000001202D03000879030008790300088F
:100010007903000879030008790300080000000054
:10002000000000000000000000000000790300084C
:100030007903000800000000790300087903000834
:1000400079030008790300087903000879030008A0
:100050007903000879030008790300087903000890
:100060007903000879030008790300087903000880
:100070007903000879030008790300087903000870
:1000800079030008790300087903000800000000E4
:1000900000000000000000000000000079030008DC
:1000A0007903000879030008790300087903000840
:1000B0007903000879030008790300087903000830
:1000C0007903000879030008790300087903000820
:1000D0007903000879030008790300080000000094
:1000E0007903000879030008790300080000000084
:1000F000000000000000000000000000790300087C
:100100000000000079030008790300087903000863
:1001100000000000000000000000000000000000DF
:1001200079030008790300087903000879030008BF
:10013000790300080000000000000000000000003B
:10014000000000000000000000000000790300082B
:10015000790300087903000879030008790300088F
:100160007903000879030008000000000000000087
:10017000000000000000000000000000000000007F
:1001800000000000790300080000000000000000EB
:0401900079030008E7
:1001940010B5054C237833B9044B13B10448AFF3BD
:1001A40000800123237010BD140000200000000013
:1001B4007C03000808B5034B1BB103490348AFF3A4
:1001C400008008BD00000000180000207C03000827
:1001D40080B500AF00F005F800F044F800F05EF8D8
:1001E400FCE780B400AF1C4B1B681A681A4B1B68F1
:1001F40022F480321A60184B1B681A68164B1B686D
:1002040042F480321A6000BF134B1B681B6803F46E
:100214000033002BF8D0114B1B681A680F4B1B6876
:1002240022F003021A600D4B1B681A680B4B1B6803
:1002340042F001021A6000BF084B1B681B68084BA0
:100244001B681A68064B1B6842F004021A6000BF60
:10025400BD465DF8047B70470000002004000020C8
:100264000800002080B400AF0A4B1B681A68094BD1
:100274001B6842F080621A60074B1B681A68064BC1
:100284001B6842F400521A6000BFBD465DF8047B4F
:10029400704700BF0C0000201000002080B400AFA5
:1002A4000E4B1B681B6803F40053002B08D00B4B48
:1002B4001B681A68094B1B6822F400521A6007E095
:1002C400064B1B681A68054B1B6842F400521A60FF
:1002D40000BFBD465DF8047B704700BF10000020DE
:1002E40070B50D4D0D4C641BA4100026A64209D117
:1002F4000B4D0C4C00F040F8641BA4100026A642E1
:1003040005D170BD55F8043B98470136EEE755F822
:10031400043B98470136F2E794030008940300086D
:100324009403000898030008DFF830D00C480D4906
:100334000D4A002302E0D458C4500433C4188C423C
:10034400F9D30A4A0A4C002301E013600432A242A2
:10035400FBD3FFF7C5FFFFF73BFF70470000012009
:1003640000000020140000209C030008140000205A
:1003740030000020FEE70000F8B500BFF8BC08BC60
:100384009E467047F8B500BFF8BC08BC9E4670474F
:04039400B9010008A3
:0403980095010008C3
:10039C000038024008380240303802400008024061
:0403AC0014080240EF
:040000050800032DBF
:00000001FF
