:020000040800F2
:10000000000001204D03000899030008990300082F
:1000100099030008990300089903000800000000F4
:10002000000000000000000000000000990300082C
:1000300099030008000000009903000899030008D4
:100040009903000899030008990300089903000820
:100050009903000899030008990300089903000810
:100060009903000899030008990300089903000800
:1000700099030008990300089903000899030008F0
:100080009903000899030008990300080000000084
:1000900000000000000000000000000099030008BC
:1000A00099030008990300089903000899030008C0
:1000B00099030008990300089903000899030008B0
:1000C00099030008990300089903000899030008A0
:1000D0009903000899030008990300080000000034
:1000E0009903000899030008990300080000000024
:1000F000000000000000000000000000990300085C
:100100000000000099030008990300089903000803
:1001100000000000000000000000000000000000DF
:10012000990300089903000899030008990300083F
:10013000990300080000000000000000000000001B
:10014000000000000000000000000000990300080B
:10015000990300089903000899030008990300080F
:100160009903000899030008000000000000000047
:10017000000000000000000000000000000000007F
:1001800000000000990300080000000000000000CB
:0401900099030008C7
:1001940010B5054C237833B9044B13B10448AFF3BD
:1001A40000800123237010BD1C000020000000000B
:1001B4009C03000808B5034B1BB103490348AFF384
:1001C400008008BD00000000200000209C030008FF
:1001D40080B400AF0D4B1B6840F213121A600C4B35
:1001E4001B681A680A4B1B6842F005021A6000BFBC
:1001F400074B1B681B6803F48033002BF8D000BF47
:1002040000BFBD465DF8047B704700BF18000020A6
:100214001400002080B500AF00F005F800F044F8A9
:1002240000F054F8FCE780B400AF1C4B1B681A685C
:100234001A4B1B6822F480321A60184B1B681A6828
:10024400164B1B6842F480321A6000BF134B1B68C4
:100254001B6803F40033002BF8D0114B1B681A6899
:100264000F4B1B6822F003021A600D4B1B681A68BF
:100274000B4B1B6842F001021A6000BF084B1B685D
:100284001B68084B1B681A68064B1B6842F0040283
:100294001A6000BFBD465DF8047B70470000002073
:1002A400040000200800002080B400AF064B1B6847
:1002B4001A68054B1B6842F080521A6000BFBD46A5
:1002C4005DF8047B704700BF0C00002080B500AFD0
:1002D4000A4B1B681A68094B1B6842F480421A6077
:1002E400FFF776FF054B1B681B68044B1B68002255
:1002F4001A60FFF76DFF00BF80BD00BF1000002033
:1003040070B50D4D0D4C641BA4100026A64209D1F6
:100314000B4D0C4C00F040F8641BA4100026A642C0
:1003240005D170BD55F8043B98470136EEE755F802
:10033400043B98470136F2E7B4030008B40300080D
:10034400B4030008B8030008DFF830D00C480D49A6
:100354000D4A002302E0D458C4500433C4188C421C
:10036400F9D30A4A0A4C002301E013600432A24282
:10037400FBD3FFF7C5FFFFF74DFF704700000120D7
:10038400000000201C000020BC0300081C0000200A
:1003940038000020FEE70000F8B500BFF8BC08BC38
:1003A4009E467047F8B500BFF8BC08BC9E4670472F
:0403B400B901000883
:0403B80095010008A3
:1003BC000038024008380240303802400008024041
:0C03CC001408024010E000E014E000E023
:040000050800034D9F
:00000001FF
