:020000040800F2
:100000000000012065030008B1030008B1030008E7
:10001000B1030008B1030008B103000800000000AC
:10002000000000000000000000000000B103000814
:10003000B103000800000000B1030008B10300088C
:10004000B1030008B1030008B1030008B1030008C0
:10005000B1030008B1030008B1030008B1030008B0
:10006000B1030008B1030008B1030008B1030008A0
:10007000B1030008B1030008B1030008B103000890
:10008000B1030008B1030008B1030008000000003C
:10009000000000000000000000000000B1030008A4
:1000A000B1030008B1030008B1030008B103000860
:1000B000B1030008B1030008B1030008B103000850
:1000C000B1030008B1030008B1030008B103000840
:1000D000B1030008B1030008B103000800000000EC
:1000E000B1030008B1030008B103000800000000DC
:1000F000000000000000000000000000B103000844
:1001000000000000B1030008B1030008B1030008BB
:1001100000000000000000000000000000000000DF
:10012000B1030008B1030008B1030008B1030008DF
:10013000B103000800000000000000000000000003
:10014000000000000000000000000000B1030008F3
:10015000B1030008B1030008B1030008B1030008AF
:10016000B1030008B1030008000000000000000017
:10017000000000000000000000000000000000007F
:1001800000000000B10300080000000000000000B3
:04019000B1030008AF
:1001940010B5054C237833B9044B13B10448AFF3BD
:1001A40000800123237010BD1C000020000000000B
:1001B400B403000808B5034B1BB103490348AFF36C
:1001C400008008BD0000000020000020B4030008E7
:1001D40080B500AF00F01CF800F060F800F07AF889
:1001E400FCE780B483B000AF00237B6002E07B684F
:1001F40001337B607B68054A9342F8DD00BF00BF92
:100204000C37BD465DF8047B704700BF3F420F00CA
:1002140080B400AF1E4B1B681A681D4B1B6822F488
:1002240080321A601A4B1B681A68194B1B6842F417
:1002340080321A6000BF164B1B681B6803F400333E
:10024400002BF8D0134B1B681A68124B1B6822F062
:1002540003021A600F4B1B681A680E4B1B6842F0AE
:1002640001021A6000BF0B4B1B681B6803F00403F8
:10027400002BF8D0084B1B681A68074B1B6842F028
:1002840001021A6000BFBD465DF8047B704700BFE1
:1002940000000020040000200800002080B400AF0B
:1002A4000A4B1B681A68094B1B6842F480721A6077
:1002B400074B1B681A68064B1B6842F008021A6059
:1002C40000BFBD465DF8047B704700BF0C000020F2
:1002D4001000002080B400AF0D4B1B681B6803F0B6
:1002E4000103002B08D00B4B1B681A68094B1B68D1
:1002F40042F010021A6006E0064B1B681B68054BAF
:100304001B6800221A6000BFBD465DF8047B70477D
:10031400140000201800002070B50D4D0D4C641B16
:10032400A4100026A64209D10B4D0C4C00F040F855
:10033400641BA4100026A64205D170BD55F8043BE9
:1003440098470136EEE755F8043B98470136F2E743
:10035400CC030008CC030008CC030008D003000839
:10036400DFF830D00C480D490D4A002302E0D45880
:10037400C4500433C4188C42F9D30A4A0A4C0023EB
:1003840001E013600432A242FBD3FFF7C5FFFFF77D
:100394001FFF704700000120000000201C00002007
:1003A400D40300081C00002038000020FEE70000F1
:1003B400F8B500BFF8BC08BC9E467047F8B500BF4E
:0803C400F8BC08BC9E4670471E
:0403CC00B90100086B
:0403D000950100088B
:1003D4000038024008380240303802400000024031
:0C03E4000C000240100002401400024017
:040000050800036587
:00000001FF
