:020000040800F2
:100000000000012059030008A5030008A50300080B
:10001000A5030008A5030008A503000800000000D0
:10002000000000000000000000000000A503000820
:10003000A503000800000000A5030008A5030008B0
:10004000A5030008A5030008A5030008A5030008F0
:10005000A5030008A5030008A5030008A5030008E0
:10006000A5030008A5030008A5030008A5030008D0
:10007000A5030008A5030008A5030008A5030008C0
:10008000A5030008A5030008A50300080000000060
:10009000000000000000000000000000A5030008B0
:1000A000A5030008A5030008A5030008A503000890
:1000B000A5030008A5030008A5030008A503000880
:1000C000A5030008A5030008A5030008A503000870
:1000D000A5030008A5030008A50300080000000010
:1000E000A5030008A5030008A50300080000000000
:1000F000000000000000000000000000A503000850
:1001000000000000A5030008A5030008A5030008DF
:1001100000000000000000000000000000000000DF
:10012000A5030008A5030008A5030008A50300080F
:10013000A50300080000000000000000000000000F
:10014000000000000000000000000000A5030008FF
:10015000A5030008A5030008A5030008A5030008DF
:10016000A5030008A503000800000000000000002F
:10017000000000000000000000000000000000007F
:1001800000000000A50300080000000000000000BF
:04019000A5030008BB
:1001940010B5054C237833B9044B13B10448AFF3BD
:1001A40000800123237010BD1C000020000000000B
:1001B400A803000808B5034B1BB103490348AFF378
:1001C400008008BD0000000020000020A8030008F3
:1001D40080B483B000AF00237B6002E07B6801330E
:1001E4007B607B68044A9342F8DD00BF00BF0C3794
:1001F400BD465DF8047B70473F420F0080B400AFFA
:100204001A4B1B681A68194B1B6822F480321A6057
:10021400164B1B681A68154B1B6842F480321A602F
:1002240000BF124B1B681B68114B1B681A68104BEC
:100234001B6822F003021A600D4B1B681A680C4BF2
:100244001B6842F001021A6000BF094B1B681B685F
:10025400084B1B681A68074B1B6842F001021A60BE
:1002640000BFBD465DF8047B704700BF000000205E
:10027400040000200800002080B400AF0A4B1B6873
:100284001A68094B1B6842F480721A60074B1B689A
:100294001A68064B1B6842F002021A6000BFBD4692
:1002A4005DF8047B704700BF0C00002014000020A0
:1002B40080B500AF0E4B1B681B6803F00103002BD5
:1002C4000AD00C4B1B681A680A4B1B6842F01002D8
:1002D4001A60FFF77DFF08E0064B1B681B68054B9F
:1002E4001B6800221A60FFF773FF00BF80BD00BFC8
:1002F400100000201800002080B500AFFFF77EFF3B
:10030400FFF7BAFFFFF7D4FFFCE700BF70B50D4D50
:100314000D4C641BA4100026A64209D10B4D0C4CB5
:1003240000F040F8641BA4100026A64205D170BD5D
:1003340055F8043B98470136EEE755F8043B9847D7
:100344000136F2E7C0030008C0030008C003000838
:10035400C4030008DFF830D00C480D490D4A0023CF
:1003640002E0D458C4500433C4188C42F9D30A4A66
:100374000A4C002301E013600432A242FBD3FFF7CE
:10038400C5FFFFF7B9FF70470000012000000020FF
:100394001C000020C80300081C00002038000020B6
:1003A400FEE70000F8B500BFF8BC08BC9E467047E5
:0C03B400F8B500BFF8BC08BC9E467047BE
:0403C000B901000877
:0403C4009501000897
:1003C800003802400838024030380240000002403D
:0C03D800100002400C0002401400024023
:040000050800035993
:00000001FF
