:020000040800F2
:10000000000001205D050008A9050008A9050008F9
:10001000A9050008A9050008A905000800000000BE
:10002000000000000000000000000000A90500081A
:10003000A905000800000000A9050008A90500089E
:10004000A9050008A9050008A9050008A9050008D8
:10005000A9050008A9050008A9050008A9050008C8
:10006000A9050008A9050008A9050008A9050008B8
:10007000A9050008A9050008A9050008A9050008A8
:10008000A9050008A9050008A9050008000000004E
:10009000000000000000000000000000A9050008AA
:1000A000A9050008A9050008A9050008A905000878
:1000B000A9050008A9050008A9050008A905000868
:1000C000A9050008A9050008A9050008A905000858
:1000D000A9050008A9050008A905000800000000FE
:1000E000A9050008A9050008A905000800000000EE
:1000F000000000000000000000000000A90500084A
:1001000000000000A9050008A9050008A9050008CD
:1001100000000000000000000000000000000000DF
:10012000A9050008A9050008A9050008A9050008F7
:10013000A905000800000000000000000000000009
:10014000000000000000000000000000A9050008F9
:10015000A9050008A9050008A9050008A9050008C7
:10016000A9050008A9050008000000000000000023
:10017000000000000000000000000000000000007F
:1001800000000000A90500080000000000000000B9
:04019000A9050008B5
:1001940010B5054C237833B9044B13B10448AFF3BD
:1001A40000800123237010BD1C000020000000000B
:1001B400AC05000808B5034B1BB103490348AFF372
:1001C400008008BD0000000020000020AC050008ED
:1001D40080B483B000AF00237B6002E07B6801330E
:1001E4007B607B68044A9342F8DD00BF00BF0C3794
:1001F400BD465DF8047B70479F86010080B582B0E0
:1002040000AF00F019F800F065F800237B600AE005
:1002140000F0AAF8FFF7DCFF00F010F9FFF7D8FFB1
:100224007B6801337B607B68B3F57A7FF0DB002366
:1002340018460837BD4680BD80B400AF224B1B680A
:100244001A68214B1B6822F480321A601E4B1B680B
:100254001A681D4B1B6842F480321A6000BF1A4BA7
:100264001B681B6803F40033002BF8D0174B1B6882
:100274001A68164B1B6822F003021A60134B1B68A2
:100284001A68124B1B6842F001021A6000BF0F4B40
:100294001B681B6803F00403002BF8D00C4B1B688D
:1002A4001A680B4B1B6842F001021A60084B1B686A
:1002B4001A68074B1B6842F002021A6000BFBD4671
:1002C4005DF8047B704700BF00000020040000209C
:1002D4000800002080B483B000AF00237B6035E0C9
:1002E4001F4B1B681A6801217B6801FA03F3194646
:1002F4001B4B1B680A431A607B68062B08D1194BF9
:100304001B681A68174B1B6842F080721A6017E06A
:100314007B68082B08D1134B1B681A68114B1B68A8
:1003240042F080621A600BE00E4B1B681A680121D0
:100334007B6801FA03F319460A4B1B680A431A60E7
:100344007B6801337B607B6801337B607B680E2BA9
:10035400C6DD00BF00BF0C37BD465DF8047B7047A7
:100364000C0000201400002080B582B000AF0723E9
:100374007B6034E02F4B1B681A6801217B6801FA0B
:1003840003F319462B4B1B680A431A607B68032B43
:1003940008D1294B1B681A68274B1B6842F480520A
:1003A4001A6017E07B68042B08D1234B1B681A687A
:1003B400214B1B6842F400521A600BE01E4B1B6871
:1003C4001A6801217B6801FA03F319461A4B1B686A
:1003D4000A431A60FFF7FCFE7B68013B7B607B6885
:1003E400002BC7DA00237B601AE0134B1B681A68E2
:1003F40001217B6801FA03F319460F4B1B680A407D
:100404001A600C4B1B681A6801217B6801FA03F31C
:100414001946084B1B680A401A607B6801337B60ED
:100424007B680D2BE1DDFFF7D3FE00BF0837BD4627
:1004340080BD00BF100000201800002080B582B0ED
:1004440000AF00237B6034E02F4B1B681A68012146
:100454007B6801FA03F319462B4B1B680A431A60A5
:100464007B68032B08D1294B1B681A68274B1B6830
:1004740042F480521A6017E07B68042B08D1234BA6
:100484001B681A68214B1B6842F400521A600BE087
:100494001E4B1B681A6801217B6801FA03F3194695
:1004A4001A4B1B680A431A60FFF792FE7B680133FC
:1004B4007B607B68072BC7DD00237B601AE0134B4E
:1004C4001B681A6801217B6801FA03F319460F4B74
:1004D4001B680A401A600C4B1B681A6801217B6870
:1004E40001FA03F31946084B1B680A401A607B683B
:1004F40001337B607B680D2BE1DDFFF769FE00BFF4
:100504000837BD4680BD00BF100000201800002041
:1005140070B50D4D0D4C641BA4100026A64209D1E4
:100524000B4D0C4C00F040F8641BA4100026A642AE
:1005340005D170BD55F8043B98470136EEE755F8F0
:10054400043B98470136F2E7C4050008C4050008D7
:10055400C4050008C8050008DFF830D00C480D4970
:100564000D4A002302E0D458C4500433C4188C420A
:10057400F9D30A4A0A4C002301E013600432A24270
:10058400FBD3FFF7C5FFFFF739FE704700000120DA
:10059400000000201C000020CC0500081C000020E6
:1005A40038000020FEE70000F8B500BFF8BC08BC26
:1005B4009E467047F8B500BFF8BC08BC9E4670471D
:0405C400B901000871
:0405C8009501000891
:1005CC000038024008380240303802400000024037
:0C05DC001400024000040240140402401D
:040000050800055D8D
:00000001FF
